:100000000C9457020C949E020C949E020C949E0237
:100010000C949E020C949E020C949E020C949E02E0
:100020000C949E020C949E020C94381C0C94F41BAD
:100030000C9407220C949E020C949E020C949E0237
:100040000C949E020C949E020C949E020C949E02B0
:100050000C949E020C94E3210C949E020C949E023C
:100060000C949E020C949E020C949E020C949E0290
:100070000C949E020C949E020C949E020C949E0280
:100080000C949E020C949E020C949E020C949E0270
:100090000C949E020C949E020C949E020C949E0260
:1000A0000C949E020C949E020C949E020501098001
:1000B000A101850319012AB700150126B700950192
:1000C00075108100C0050C0901A101850419012AE0
:1000D000A002150126A002950175108100C00660DE
:1000E000FF0961A1010962150026FF00952075082E
:1000F00081020963150026FF00952075089102C052
:1001000005010906A101050719E029E715002501E8
:10011000950875018102950175088101050719008F
:1001200029FF150026FF00950675088100050819AE
:10013000012905950575019102950175039101C08D
:10014000000101010101010101010202020202029A
:10015000020202030303030303030304040404046D
:100160000404050505050506060606060707070734
:100170000708080808090909090A0A0A0B0B0B0CE9
:100180000C0C0D0D0D0E0E0E0F0F0F101011111186
:100190001212131314141515161617171818191907
:1001A0001A1A1B1B1C1D1D1E1E1F2020212222236C
:1001B0002424252626272829292A2B2C2D2D2E2FAD
:1001C00030313232333435363738393A3B3C3D3EC4
:1001D0003F404142434445464748494A4C4D4E4FB3
:1001E00050515354555658595A5B5D5E5F61626475
:1001F000656668696B6C6D6F7072737577787A7B02
:100200007D7E8082838587888A8C8E8F9193959658
:10021000989A9C9EA0A2A3A5A7A9ABADAFB1B3B578
:10022000B7BABCBEC0C2C4C6C9CBCDCFD1D4D6D854
:10023000DBDDDFE2E4E7E9EBEEF0F3F5F8FAFDFFF2
:10024000FFAA7F55402223252628292A2C2D2F302E
:1002500032333536383A3B3D3E4042434547494AC2
:100260004C4E5051535557595A5C5E6062646668F3
:10027000696B6D6F71737577797B7D7F81838587FE
:10028000898A8C8E90929496989A9C9E9FA1A3A501
:10029000A7A8AAACAEAFB1B3B4B6B8B9BBBCBEBF29
:1002A000C1C2C3C5C6C7C9CACBCCCDCED0D1D2D2AC
:1002B000D3D4D5D6D7D7D8D9D9DADADBDBDBDCDCB7
:1002C000DCDCDCDDDDDDDDDCDCDCDCDCDBDBDBDA6F
:1002D000DAD9D9D8D7D7D6D5D4D3D2D2D1D0CECDDA
:1002E000CCCBCAC9C7C6C5C3C2C1BFBEBCBBB9B8E7
:1002F000B6B4B3B1AFAEACAAA8A7A5A3A19F9E9C6C
:100300009A98969492908E8C8A89878583817F7D36
:100310007B79777573716F6D6B6968666462605E17
:100320005C5A5957555351504E4C4A4947454342E0
:10033000403E3D3B3A3836353332302F2D2C2A297A
:1003400028262523221E001F002000210022002332
:10035000000000000000000000000000000000009D
:1003600000000000007E0F00D4FFFFFFC700000068
:100370007800000000000000002A2B280000000088
:100380000000000000000000000000002900000044
:10039000002C1E3420212224342627252E362D37EA
:1003A00038271E1F202122232425263333362E37BB
:1003B000381F0405060708090A0B0C0D0E0F101153
:1003C00012131415161718191A1B1C1D2F31302360
:1003D0002D350405060708090A0B0C0D0E0F101128
:1003E00012131415161718191A1B1C1D2F3130352E
:1003F0004C32190A00047F3F1F64321464321478AF
:100400003C1E1E140A0509025B00030100A0FA0944
:100410000400000103010100092111010001224033
:10042000000705810308000A090401000203000017
:10043000000921110100012222000705820320008A
:100440000107050303200001090402000103000065
:100450000009211101000122320007058403200058
:100460000A120110010000000851440100010001BE
:10047000020301040330000000120332007800334D
:10048000005F00740065007300740000001A0344EC
:100490000061006E00690065006C0020005100756D
:1004A00000610063006800000004030904001124D7
:1004B0001FBECFEFDAE0DEBFCDBF04B603FE27C01C
:1004C0008091470290914802A0914902B0914A025E
:1004D0008730904BA740B04BD1F410924702109256
:1004E00048021092490210924A0214BE84B7877FD4
:1004F00084BF0FB6F894A8958091600088618093BE
:100500006000109260000FBEE0E0F8E3099522E081
:10051000ACE9B1E001C01D92A734B207E1F711E0E8
:10052000A0E0B1E0E0EAF7E402C005900D92AC393A
:10053000B107D9F70E94241D0C9483230C9400006A
:10054000E8EDF0E080818E7F80831092E2001092CF
:10055000DA001092E100A0EEB0E08C9181608C9303
:1005600080818F77808319BCA7EDB0E08C918E7F5E
:100570008C9380818F7E8083109225020895209134
:10058000E4003091E50095E6A9012091EC00822F6E
:10059000817020FF06C08091E80080FF06C080E0E7
:1005A00008952091E80022FD1AC08091420288231C
:1005B00089F0853089F08091EB0085FD0FC0209196
:1005C000E4003091E50042175307F9F29150E1F64B
:1005D00084E0089582E0089583E0089581E008951D
:1005E000EF92FF920F931F93CF937C018B010E9498
:1005F000BF02C82F811117C08091E80085FD0BC094
:100600008091E8008E778093E8000E94BF028823E3
:1006100099F3C82F08C0F70181917F018093F10001
:100620000150110949F78C2FCF911F910F91FF9025
:10063000EF900895CF93FC0180914202843001F540
:10064000C091E900CF702091EC00922F917020FDB5
:1006500090E8C92B82E08093E9008091E80080FF58
:100660000CC050E040E060E270E0CF010E94F00278
:100670008091E8008E778093E800CF70C093E90006
:10068000CF91089580913A0287FF13C08091E800CE
:1006900082FF06C08091E8008B778093E80004C059
:1006A000809142028111F2CF089580914202882305
:1006B000D9F38091E80080FFF8CF8091E8008E7731
:1006C000ECCF982F9093E900242F762F50E08917D4
:1006D00031F07091EC002091ED005091F00021FD7F
:1006E00007C09F5F973071F78093E90081E008951C
:1006F0003091EB003E7F3093EB003091ED003D7F79
:100700003093ED003091EB0031603093EB0070934B
:10071000EC002093ED005093F0002091EE0027FDB7
:10072000E0CF80E00895CF92DF92EF92FF920F9397
:100730001F93CF93DF93C8EDD0E088818F7E8883AD
:10074000E7EDF0E080818160808384E082BF81E01A
:100750008093250288818E7F888302EE10E0F80165
:1007600010821092DA0081EEC82ED12CF601108290
:1007700088818F77888388818068888388818F7D4E
:10078000888319BC109242021092390210923802EA
:100790001092370290EEE92EF12CF70180818B7FC9
:1007A000808388818160888342E060E080E00E94ED
:1007B0006103F60180818E7F8083F80180818160F2
:1007C0008083808188608083F70180818E7F808331
:1007D000888180618883DF91CF911F910F91FF9075
:1007E000EF90DF90CF900895FC01809140029091AE
:1007F000410286179707A0F06115710529F49091C1
:10080000E8009E779093E80090E06115710551F43F
:10081000911108C08091E80082FF34C080E0089503
:10082000BC01F2CF809142028823C1F18530C1F131
:100830008091E80083FD30C08091E80082FDEACF1E
:100840008091E80080FFE1CF8091F3002091F200D9
:10085000382F6115710519F02830310558F091E0F5
:100860002830310509F090E02091E8002E772093A0
:10087000E800CBCF81918093F100615071092F5F27
:100880003F4FE7CF80914202882341F0853041F00D
:100890008091E80083FFBECF81E0089582E0089553
:1008A00083E008950895089580912E02089587E7C2
:1008B00097E7909301088093000888E19AE00FB6CB
:1008C000F894A895809360000FBE90936000FFCFCE
:1008D0009C014FB7F8948091210290912202A0913F
:1008E0002302B09124024FBF821B930B08952FB7B0
:1008F000F8948091210290912202A0912302B0915C
:1009000024022FBF089580910302811110920302E7
:1009100008958091020290910102892B909100022A
:10092000892B80939C0190910302992391F0892B4C
:1009300080939C0120E08EE991E0FC013191CF0190
:1009400031112F5FF1E0843A9F07B9F721110E941E
:100950008304E0910D02F0910E02309731F0028095
:10096000F381E02D8CE991E009940895EEE9F1E03E
:100970009191891303C0DF0111971C9291E0E43A31
:10098000F907B1F70895AEE9B1E0EFEF90E02D91EE
:10099000821751F0EF3F19F4211101C0E92F9F5F39
:1009A0009630A9F7EF3F09F408950E2E000CFF0BC7
:1009B000E456FE4F82830895E92FEE0F9E0F890FB4
:1009C000982F977086958695869525E0829FF001F1
:1009D0001124E650FE4F50E040E080E0219130E0ED
:1009E000092E02C0369527950A94E2F72170332725
:1009F000042E01C0220F0A94EAF7822B4F5F5F4F4B
:100A00004530510559F70895E92FEE0F9E0F890FD4
:100A1000982F977041E001C0440F9A95EAF78695A8
:100A20008695869595E0899FF0011124E650FE4F4A
:100A300030E020E070E05191DF011197CB01022EF0
:100A400002C0969587950A94E2F781708195852773
:100A5000842385278C932F5F3F4F2530310559F72D
:100A600008958091F9019091C801981301C00895EB
:100A70008F5F8770FACF882341F0809590910202B2
:100A80008923809302020C9489040895882339F005
:100A900090910202982B909302020C94890408957D
:100AA0002091BE013091BF012817390771F0909352
:100AB000BF018093BE01E0910D02F0910E023097CC
:100AC00021F00084F185E02D099408952091BC0166
:100AD0003091BD012817390771F09093BD018093C3
:100AE000BC01E0910D02F0910E02309721F00680DA
:100AF000F781E02D099408951092010210920002EE
:100B00000E94890490E080E00E94660590E080E009
:100B10000C94500560934302709344028093450205
:100B2000909346020C947C050F931F9360914302AF
:100B30007091440280914502909146028B019C0184
:100B400006701127222733270630110521053105AC
:100B500029F468601F910F910C948A05677FFACF82
:100B60000F931F9341E050E060E070E004C0440F39
:100B7000551F661F771F8A95D2F7CB01BA01609582
:100B800070958095909500914302109144022091B8
:100B900045023091460260237123822393231F91E3
:100BA0000F910C948A059091FF0180958923809381
:100BB000FF01282F277071F4282F082E000C330B0B
:100BC0009217130639F08595859585950E94B00595
:100BD0001092FF0108950F931F9341E050E060E0F1
:100BE00070E004C0440F551F661F771F8A95D2F727
:100BF0008091430290914402A0914502B091460237
:100C00008A019B01082B192B2A2B3B2BC901B80108
:100C10001F910F910C948A05609304027093050252
:100C200080930602909307020C947C05E0910D02DC
:100C3000F0910E02309721F00190F081E02D09949F
:100C400080E00895882309F452C0823871F40E942C
:100C5000160681FF4CC089E30E94C3040E948904E8
:100C600089E30E94B6040C948904833859F40E94E5
:100C7000160680FF3CC083E50E94C3040E948904DD
:100C800083E5EFCF843859F40E94160682FF2FC007
:100C900087E40E94C3040E94890487E4E2CF9CEFAA
:100CA000980F913AF0F290E2980F983088F487709C
:100CB00021E030E0A90102C0440F551F8A95E2F7F8
:100CC000CA01809590910202892380930202CBCFC2
:100CD0009BE5980F933020F490E080E00C9466053B
:100CE000885A873120F490E080E00C9450050895F4
:100CF000FA01811101C0FB01099480912602982F0D
:100D00009E7F29F481708260809326020895863543
:100D1000E8F381708465F8CFAF92BF92DF92EF92D3
:100D2000FF920F931F93CF93DF93082F162FE901A4
:100D3000E42FF0E0E05CFE4F611110C0E4915E2F03
:100D40004E2F4983E8835A83DF91CF911F910F91F2
:100D5000FF90EF90DF90BF90AF900895E62EF12CBA
:100D60004491D42EE42FF0E026E0829FC0011124AC
:100D70002FEF30E0B9010E943A22802F90E0880FD7
:100D8000991F55E5569FD001579FB00D11248A1B1E
:100D90009B0B982F990F890F5901AE18BF08AE9E73
:100DA000D001AF9EB00DBE9EB00D11245B2F189FD9
:100DB00080011124012F11275901A01AB10AAE9EFA
:100DC0008001AF9E100DBE9E100D11245901A81A6E
:100DD000B108AE9CC001AF9C900DBE9C900D11243B
:100DE000892F9927281B390B2E9FC0012F9F900D0B
:100DF0003E9F900D1124E92F62307105A1F050F44F
:100E00006115710509F49DCF6130710581F0EB2FFB
:100E1000512F97CF6430710569F080F0663071050D
:100E200009F48FCFF4CFE42F4B2F592F8ACFE42F23
:100E3000412F87CFEB2F542F492F83CF4B2F5D2D81
:100E4000E12F7FCF90910A0292FF06C0282F2871D0
:100E50002830F9F4877F846093FF06C0282F28711B
:100E60002831F1F4877E846120910B0220FF06C0B7
:100E7000382F38713830D9F4877F816021FF06C060
:100E8000282F28712831D1F4877E816194FD877ED7
:100E90000895282F24712430F9F68B7F8860DCCFE9
:100EA000282F2471243101F78B7E8861DDCF382F04
:100EB0003171313019F78E7F8860E0CF282F217192
:100EC000213121F78E7E8861E1CFCF93DF9300D06F
:100ED0000F92CDB7DEB790914202943011F589831D
:100EE0007B836A839093E9008FEF9091E8008150B3
:100EF00095FD06C095ED9A95F1F700008111F5CFAB
:100F00008091E80085FF0DC050E040E063E070E0B4
:100F1000CE0101960E94F0028091E8008E778093C6
:100F2000E8000F900F900F90DF91CF9108952091DE
:100F30004202243021F4BC0184E00C94650708953A
:100F4000BC0183E00C946507CF93DF93EC018091A3
:100F50004202843039F581E08093E9008FEF90916F
:100F6000E800815095FD06C095ED9A95F1F70000D7
:100F70008111F5CF8091E80085FF14C050E040E07A
:100F800068E070E0CE010E94F0028091E8008E7768
:100F90008093E80088E0FE01AFE2B2E001900D929C
:100FA0008A95E1F7DF91CF910895CF93C82F8823D9
:100FB00009F488C08238C1F40E94160681FD82C0FF
:100FC00089E30E94C3040E9489042FEF81EE94E01C
:100FD000215080409040E1F700C0000089E30E946A
:100FE000B604CF910C9489048338A1F40E941606AC
:100FF00080FD68C083E50E94C3040E9489042FEF2E
:1010000081EE94E0215080409040E1F700C0000064
:1010100083E5E5CF8438A1F40E94160682FD52C014
:1010200087E40E94C3040E9489042FEF81EE94E0BC
:10103000215080409040E1F700C0000087E4CFCF0E
:101040008CEF8C0F813A68F4EEE9F1E08191C817DA
:1010500099F121E0E43AF207C9F78C2F0E94C3040A
:10106000C0CF80E28C0F883068F4C77021E030E098
:1010700001C0220FCA95EAF780910202822B809369
:101080000202AFCFEBE5EC0FE33040F4F0E0E95BB8
:10109000FE4F808190E0CF910C946605C85AC7310D
:1010A00088F4EC2FF0E0EE0FFF1FE65BFE4F80812F
:1010B0009181CF910C9450058C2F0E94B6040E9410
:1010C0008904CBCFCF910895CF93C82F0E94D50725
:1010D000C93349F42FEF87EE93E0215080409040D0
:1010E000E1F700C000008C2FCF910C9422060F93E3
:1010F0001F93CF93DF93C62FD42F022FFC01828141
:101100008823A1F06093C0010E9477049093BB01F3
:101110008093BA01C77081E001C0880FCA95EAF7D1
:10112000DF91CF911F910F910C9446051091C00152
:10113000161335C08091BA019091BB010E946804DA
:10114000883C910560F5C0E2CD0F1D17B9F080E233
:10115000810F883040F4177081E001C0880F1A9524
:10116000EAF70E943B05C83048F481E09D2F977054
:1011700001C0880F9A95EAF70E944605802F0E94C9
:101180006408C83098F4D77081E001C0880FDA9500
:10119000EAF7DF91CF911F910F910C943B05C77037
:1011A00081E001C0880FCA95EAF7F3CFDF91CF91B4
:1011B0001F910F9108958091260280FD0CC010921E
:1011C000AB011092AA011092AC011092AE011092E4
:1011D000AD011092AF01269A35B13F7B25B1206455
:1011E0004FB7F8948AEA91E0FC015191CF0168E091
:1011F00025B9000000C057FF35B9550F000000C0E9
:1012000000C000C035B900C06A9591F7F1E0803B9D
:101210009F0751F74FBF8FE594E00197F1F700C0AA
:10122000000008950F931F93CF93DF93EC0100917B
:101230002902109128022AEA31E0402F612F8C8187
:101240000E948C068C812DEA31E0402F612F81585D
:101250000E948C060E94DB089A818C8190FF07C057
:101260008F5F8C83DF91CF911F910F9108958150F3
:10127000F8CFCF92DF92EF92FF920F931F93CF930D
:10128000DF93FC0182811FEF80FF11E0CAEAD1E009
:10129000D12CC12C198218821A8294E0E92EF12CEB
:1012A00000E08091A701800F8330CCF18170082E7F
:1012B000000C990B8C159D0591F4809129028E9D4F
:1012C000A0018F9D500D1124559547955595479533
:1012D0009E0160912802809127020E948C06010FD6
:1012E000F1E0EF1AF108E9F62396CA94CD2899F4B3
:1012F0000E94DB088091A7011130C9F4811113C04D
:101300001093A701DF91CF911F910F91FF90EF9064
:10131000DF90CF900895CC24C394D12CBBCF87FF0E
:10132000C6CF8E5FC4CF81508093A701EBCF90E0F2
:10133000019681709927F8CFCF93DF931092AB017C
:101340001092AA011092AC011092AE011092AD0160
:101350001092AF01C091A8010C2E000CDD0B1C16E1
:101360001D0674F51092AB011092AA011092AC0107
:101370002297ACF58091100118168CF52DEA31E01A
:101380004091290260912802809127020E948C06D8
:101390000E94DB0880910F019091A801980F909313
:1013A000A80120911001280F20931001121614F4A7
:1013B00019161CF4819580930F01DF91CF91089548
:1013C0008091100187FDCECF2AEA31E040912902B9
:1013D00060912802809127020E948C06C9CF10924A
:1013E000AE011092AD011092AF01D2CFFF920F93D8
:1013F0001F93CF93DF93EC018C819D8101968170C7
:1014000099279D838C83E6E2F2E0F380028115E563
:101410002AEA31E04F2D602F189F802D11240E9461
:101420008C068C8181702DEA31E04F2D602F819FD9
:10143000802D11240E948C06DF91CF911F910F9176
:10144000FF900C94DB080F931F93CF93DF93EC0175
:1014500010912702009128028C812AEA31E040E0B5
:10146000811140912902602F812F0E948C068C816E
:101470002DEA31E040E0811102C040912902602F45
:10148000812F0E948C060E94DB088C8190E00196DF
:10149000817099278C83DF91CF911F910F910895CF
:1014A0009091260290FF0EC08093AB016093AA0139
:1014B0004093AC018093AE016093AD014093AF01C6
:1014C0000C94DB0808950F931F93CF93DF9300D004
:1014D0000F92CDB7DEB78C018091A90181110AC0AE
:1014E0009E012F5F3F4F4FEF6FEF0E948C068A8166
:1014F0008093A901F8016481613069F08091A901AC
:1015000040E0662361F040E0623011F44091A901AF
:1015100080E060E004C06091A90140E080E00E94AA
:10152000500AF801848190E0019663E070E00E9427
:101530004E2284830F900F900F90DF91CF911F91D7
:101540000F910895CF93DF9300D00F92CDB7DEB700
:101550009091260290FF0AC09E012F5F3F4F0E948C
:101560008C064B8169818A810E94500A0F900F90EE
:101570000F90DF91CF910895CF93DF93EC01EC8131
:10158000F0E0EB5BFD4F4491E6E2F2E062818181A5
:101590000E94A20A8C818F5F8C83DF91CF91089586
:1015A000CF93DF93EC01E6E2F2E0438162818C812C
:1015B0000E94A20A8C818F5F8C83DF91CF91089566
:1015C0008F929F92AF92BF92CF92DF92EF92FF9253
:1015D0000F931F93CF93DF9368E771E028E0822E8B
:1015E00022E0922EC0E0EE24E394F12CDB018D91F9
:1015F000BD01E82FE295EF70F0E091A18F708701B7
:1016000001C0000F8A95EAF7892F802B81A392A150
:10161000D02FD0959D2392A3B0EABA95F1F79AE71F
:10162000C92E91E0D92E50E040E020E0D6013D9156
:101630006D01A32EA2948FE0A822B12CD501909623
:101640008C9190E03F7002C0959587953A95E2F7AE
:1016500080FD3FC08E2D042E01C0880F0A94EAF74A
:10166000282B4F5F5F4F4330510501F781A18D2338
:1016700081A382A1082B02A3F4018081281759F1CC
:10168000208381E0C82BFFEF8F1A9F0A81E06A3721
:10169000780709F0ABCFCC2301F181E08093A6015C
:1016A0000E9477049093A5018093A4018091A401E6
:1016B0009091A5010E946804069798F08091080215
:1016C00080931F0280910902809320021092A6014C
:1016D00008C080E0C5CF80E0D5CF8091A601811100
:1016E000E5CF8C2FDF91CF911F910F91FF90EF905D
:1016F000DF90CF90BF90AF909F908F900895CF9341
:1017000084E090E00E94D822C82F81E290E00E94FD
:10171000D822982F8C2FCF9108950F931F93CF939A
:10172000DF93C42FD0E0CC0FDD1F26E0629FC00DF9
:10173000D11D11243CE0839FC00DD11D1124CE0189
:1017400086960E94D822082F10E0102F0027CE0185
:1017500087960E94D8229801282BC901DF91CF914A
:101760001F910F910895462F843038F4723028F479
:10177000633018F4672F0C948D0B90E080E008958F
:10178000CF93DF930E94B30BEC0182389105A9F14E
:10179000D8F58133910509F496C048F58932910551
:1017A00009F48AC08A9709F495C0C11522E5D207C9
:1017B00008F0B6C0C11531E5D30708F026C1C83E10
:1017C000D10508F09CC0C03ED10560F5C83AD105EE
:1017D00008F087C0C53AD10508F0EFC0C130D10587
:1017E00009F12097F9F0C430D105E0F440C0853309
:1017F000910509F45AC0C997C1F680910A02837015
:1018000089F0C0EED0E00EC0833E910599F170F4EE
:10181000803E910501F1823E910539F680910A02E0
:1018200082FD21C0CE01DF91CF910895863E9105C2
:1018300061F1873E910571F1843E910509F0B5CFC4
:1018400080910B0281FFEECF80910A02C7EED0E0BB
:1018500084FD0DC0E7CF80910A0280FD07C1909101
:101860000B0290FFDFCFC3EED0E084FFDBCFD0E0F0
:10187000C0E0D8CF80910A0282FDFBC090910B029C
:1018800090FDBFCF84FFCECFF2CF80910A0283FDBF
:10189000DDCFC8CF80910A0283FDEEC090910B028C
:1018A00091FFF0CFC4EED0E0BDCF80910A0285FF5A
:1018B000B9CFC9E2D0E0B6CF80910A0285FFB2CF9E
:1018C000C5E3D0E0AFCF80910A0286FFABCFCAE27A
:1018D000D0E0A8CF80910A0286FFA4CFC1E3D0E078
:1018E000A1CFCF3BD10518F6C85AD0E0CC0FDD1FF1
:1018F000C65BDE4F0990D881C02DD46493CFC1154B
:1019000040E5D40708F064C0C11580E4D80708F0AA
:101910005CC0CE019A9581159F4108F483CFA7CF73
:10192000C11536E5D30718F5C11545E5D40708F00C
:1019300084C0C11584E5D80708F07AC09C2F96951D
:1019400096959E0123703327C115D34508F462C0D4
:10195000C1E0D0E002C0CC0FDD1F2A95E2F730E2F3
:10196000939FC0011124C82BD92BDA685BCFC11516
:101970008AE5D80778F4C11599E5D90708F068C059
:10198000C11528E5D20708F472CFDC2FCC27C06F31
:10199000D06A48CFCE0190568115904208F067CFAB
:1019A0008D2F8F710E94220790E0982F882788271B
:1019B0009F719C012C2BE90149C0C55AD0E0C95B3D
:1019C000DE4FC881D0E0D0642DCFDF70D06A2ACF3F
:1019D000CE01E4E096958795EA95E1F783702C2F88
:1019E00026952695237040E2249F90011124382BE0
:1019F0008C2F8370C1E0D0E002C0CC0FDD1F8A9530
:101A0000E2F7C22BD32BDC680DCFDC2FCC27C16FC4
:101A1000D06A08CFC1E0D0E002C0CC0FDD1F2A950C
:101A2000E2F720E2929FC0011124C82BD92BEBCF03
:101A3000DC2FCC27C46FD06AF5CE8C2F0E942207F2
:101A4000C82FD0E0DC2FCC27CC27DF71D062EACEC4
:101A50008C2F8F700E94220734E0D695C7953A9557
:101A6000E1F7CF709C2FEC01D069DCCEC9E3D0E068
:101A7000D9CEC2EED0E0D6CEC6EED0E0D3CEBF9265
:101A8000CF92DF92EF92FF920F931F93CF93DF934A
:101A90008C01C0904302D0904402E0904502F09047
:101AA00046028091040290910502A0910602B09135
:101AB0000702C82AD92AEA2AFB2ACFE1D0E0BC2EA5
:101AC000D701C6010C2E04C0B695A79597958795AA
:101AD0000A94D2F780FD0EC0219788F7B12C8B2D88
:101AE000DF91CF911F910F91FF90EF90DF90CF90FA
:101AF000BF900895B8018C2F0E94C00B019761F32D
:101B0000EECFCF93DF93EC010E943F0DBE01DF913A
:101B1000CF910C94C00B0E94810D292F2F709295AC
:101B20009F7092509E3078F4E92FF0E0EB57FC4D17
:101B30000C946222803F19F020F4883E20F481E06A
:101B40000895843FE1F380E00895883EC0F3813F2B
:101B5000D1F7F5CF822F86958695869508956F9259
:101B60007F928F929F92AF92BF92CF92DF92EF922D
:101B7000FF920F931F93CF93DF9385E4C82E83E0EA
:101B8000D82E98E3E92EF12CE7012C9736011BC0E3
:101B9000F50185909490692DC8010E94EC22682D72
:101BA000C80101960E94EC2282E0A80EB11C0E5FD3
:101BB0001F4FC017D10761F786E0680E711C26968B
:101BC000CE15DF0529F08E01065011095301E0CF33
:101BD0007E018CE0E80EF11C8CE0C80ED11C88E67A
:101BE000E816F10489F6DF91CF911F910F91FF90D4
:101BF000EF90DF90CF90BF90AF909F908F907F90AD
:101C00006F900895CF93DF93C6E5D0E060E0CE01FA
:101C10000E94EC222196C11584E0D807B9F7DF9124
:101C2000CF910895CF93C82F6FEF811160E282E2C8
:101C300090E00E94EC226FEFC11167E083E290E038
:101C40000E94EC226FEFC11162E284E290E0CF913A
:101C50000C94EC228F929F92AF92BF92CF92DF9220
:101C6000EF92FF920F931F93CF93DF93FC01B2800B
:101C7000948081E08483C0EBD1E00AEA11E08BE438
:101C8000A82E88248394EE24EA94F12C2BE4C22E0F
:101C9000D12C91101DC01B821A8298014A81698142
:101CA00088810E948C0625960D5F1F4F81E0CA3BFC
:101CB000D80779F7DF91CF911F910F91FF90EF90A7
:101CC000DF90CF90BF90AF909F908F900C94DB08E7
:101CD0002B81222309F121502B833C818A2D821BE9
:101CE000311101C0822F90912902899FC0011124D6
:101CF000B6010E943A226A83211104C0332311F0F5
:101D00001C82AB8222E02B1540F28091270288834F
:101D1000809128028983C1CF0E94BB2282309140EA
:101D20000CF0BBCF82E08B15C0F40E94BB22B70140
:101D30000E944E22888322E02B1590F40E94BB2241
:101D4000209128022695622F70E00E944E22280FD3
:101D500029831A82AB828C82A0CF80912702EACF9E
:101D600020912802F5CF6CEE7EEF90E080E00E949B
:101D70000A2360E082E090E00E94EC2260E083E0D1
:101D800090E00E94EC221092040210920502109240
:101D900006021092070260E084E090E00E94EC22CC
:101DA00060E081E290E00E94EC2260E085E090E05B
:101DB0000E94EC2260E086E090E00E94EC226FEF4F
:101DC00087E090E00E94EC2240E050E0BA0188E019
:101DD00090E00E94FE2260E08DE090E00E94EC2204
:101DE00040E050E0BA0188E190E00E94FE2260E00D
:101DF00087E190E00E94EC2240E050E0BA018CE1E3
:101E000090E00E94FE2260E080E290E00E94EC22DE
:101E100040E050E0BA018FE090E00E94FE2240E0F6
:101E200050E0BA0183E190E00C94FE22CF92DF9261
:101E3000EF92FF926B017C010E947D06B701A60123
:101E400088E090E0FF90EF90DF90CF900C94FE221E
:101E500080912A02833018F48F5F80932A02609168
:101E600026027091270280912802909129020C94F9
:101E7000160F80912A02882319F0815080932A023C
:101E80006091260270912702809128029091290288
:101E90000C94160FBF92CF92DF92EF92FF920F93A6
:101EA0001F93CF93DF9300D00F92CDB7DEB7F82EFC
:101EB000C62EE42EB22E9091260290FF29C0292F23
:101EC0002695E22FF0E0E45EFE4F808180931D02B4
:101ED0009E7F923051F59E012F5F3F4F8F2D0E94C4
:101EE0008C064B8169818A810E94500AF0922702F8
:101EF000C0922802E0922902BB2051F06091260294
:101F00007091270280912802909129020E94160F59
:101F10000F900F900F90DF91CF911F910F91FF9035
:101F2000EF90DF90CF90BF900895823019F4E09049
:101F30002902DCCF863019F4F0902702D7CF893000
:101F4000D9F3893199F687EED82ED20EED2DE6958C
:101F5000F0E0E05CFD4F059114912AEA31E08F2D0D
:101F60000E948C06C801969587958F779927D0FC9B
:101F70000AC08F0D2DEA31E04E2D6C2D0E948C068B
:101F80000E94DB08B3CF2F2D281B822FF3CFE6E270
:101F9000F2E0438128E0421B08F440E021E0628146
:101FA00081810C944A0FE6E2F2E0438128E0420F7F
:101FB00008F44FEF21E0628181810C944A0FE6E240
:101FC000F2E0628128E0621B08F460E021E04381D6
:101FD00081810C944A0FE6E2F2E0628128E0620F10
:101FE00008F46FEF21E0438181810C944A0FE6E20F
:101FF000F2E0818121E04381628188500C944A0F94
:10200000E6E2F2E0818121E043816281885F0C9405
:102010004A0FE6E2F2E083E0808311828FEF828351
:102020008383148260817181828193810C94160F65
:1020300010920202EEE9F1E086E0DF011D928A953E
:10204000E9F70C947C051F93CF93DF93CDB7DEB7F0
:10205000AA970FB6F894DEBF0FBECDBF8AE392E019
:102060002091F100DC012D93CD01B2E082349B0779
:10207000B9F780913B02833009F471C0B8F4813024
:1020800009F448C0823009F4B2C08091E80083FFAF
:1020900093C280913A0290913B029A3008F08CC230
:1020A000E92FF0E0ED56FC4D0C9462228A3009F4E1
:1020B0008DC08B3009F470C0893039F780913A02B5
:1020C000813219F780913E0290913F02009711F002
:1020D0000297D9F68091E800877F8093E80080918D
:1020E000E80082FF37C09091F3008091F2000297E0
:1020F00029F48091F1008B7F813021F48091F100EF
:1021000080932E028091E8008B778093E8000E94F4
:102110004203BBCF80913A02813A09F0B6CF809159
:10212000E800877F8093E80080913E0290913F0213
:10213000892B61F468E08FE292E070E00E94F40382
:102140008091E8008B778093E8009FCF60E090E07B
:1021500080E0F3CF809142028111C1CF96CF809170
:102160003A02813A09F091CF80913E0290913F026C
:10217000892B09F08ACF8091E800877F8093E8005F
:102180008091E80080FFFCCF80911B018093F100DB
:102190008091E8008E77B9CF80913A02813209F0C0
:1021A00074CF80913E0290913F02892B09F06DCF50
:1021B0008091E800877F8093E8000E94420380912D
:1021C0003C0280931B010E9418105FCF80913A025D
:1021D000813209F05ACF8091E800877F8093E80030
:1021E0000E94420380913D0280932D024ECF809148
:1021F0003A02813A09F049CF8091E800877F8093C5
:10220000E8008091E80080FFFCCF80912D02BECFD6
:10221000803899F0823809F0CFC180913E028F70EA
:10222000873008F0C9C18093E9008091EB0085FBFD
:10223000882780F91092E90006C0809137029091BA
:102240003802911182609091E800977F9093E800A6
:102250008093F1001092F1008091E8008E77A8C180
:10226000882309F496C1823009F0A6C180913C020E
:10227000811199C180913E028F702FEF280F263077
:1022800008F09AC18093E9002091EB0020FF8BC1F8
:10229000933031F48091EB0080628093EB0083C136
:1022A0009091EB0090619093EB0021E030E001C051
:1022B000220F8A95EAF72093EA001092EA008091B3
:1022C000EB008860EACF811177C110913C021F7743
:1022D0008091E3008078812B8093E3008091E80077
:1022E000877F8093E8000E9442038091E80080FF8E
:1022F000FCCF8091E30080688093E30082E01111BD
:1023000083E08093420258C18058823008F054C163
:1023100020913C0230913D022C3DE3E03E07A1F5C7
:1023200083E08A838AE289834FB7F894DE011396AB
:1023300020E03EE051E2E32FF0E050935700E491BB
:1023400020FF03C0E295EF703F5FEF708E2F90E0AB
:10235000EA30C0F0C7968D939D932F5F243159F7D3
:102360004FBF8091E800877F8093E8006AE270E0C9
:10237000CE0101960E94F4038091E8008B77809350
:10238000E8001AC1C096E7CF80913E0290913F02CB
:10239000432F55274330510509F44AC078F54130A1
:1023A000510509F485C08BE590E0E6E0F4E04230A9
:1023B000510509F001C12091E800277F2093E80032
:1023C00020914002309141028217930708F49C014A
:1023D00040E02115310509F070C041116EC08091B7
:1023E000E80082FDC9CF80914202882329F285301E
:1023F00019F28091E80083FFF2CFBECF4132510540
:1024000009F447C04232510509F0D6C08330910526
:1024100008F0D2C0FC01EE0FFF1FE057FE4F019005
:10242000F081E02D83579E4FDC018C9190E01DC020
:10243000332721303105E9F02115310579F02230BB
:102440003105F9F02330310509F0B6C0E3E7F4E0D7
:10245000E4918E2F90E0E3E7F4E007C0E9EAF4E0CE
:10246000E4918E2F90E0E9EAF4E0009709F4A4C02B
:10247000A2CFEDE8F4E0E4918E2F90E0EDE8F4E0F7
:10248000F4CFE9E7F4E0E4918E2F90E0E9E7F4E09F
:10249000ECCF8330910508F08FC0880F991FFC01A5
:1024A000EA56FE4F0190F081E02D89E090E083CF65
:1024B00082E190E0E1E6F4E07ECF80914202882361
:1024C00009F45ACF853009F457CF8091E80083FD95
:1024D00053CF8091E80082FD82CF8091E80080FF99
:1024E00078CF9091F3008091F2002115310519F019
:1024F0008830910550F041E0089709F040E0809164
:10250000E8008E778093E80064CF44914093F10017
:102510003196215031090196E8CF803809F04CC03E
:102520008091E800877F8093E80080913902809352
:10253000F10092CE811140C010913C021230E0F5C2
:102540008091E800877F8093E800109339020E9411
:102550004203112311F084E005C08091E30087FD60
:10256000FACF81E08093420242E061EC81E00E9478
:10257000610342E261EC84E00E94610342E261ECAB
:1025800082E00E94610342E260EC83E00E9461030A
:1025900013C080913C02813079F481E0933009F0DE
:1025A00080E0809338021092E9008091E800877FF4
:1025B0008093E8000E9442038091E80083FF0AC0F4
:1025C0008091E800877F8093E8008091EB00806233
:1025D0008093EB00AA960FB6F894DEBF0FBECDBF76
:1025E000DF91CF911F91089560912602669570E06A
:1025F0004BE050E084E091E00E94CB22892B19F45B
:1026000081E080931E020E947704909311028093D0
:10261000100208959091260290FF36C091708111AA
:1026200029C0926090932602662351F060912602A1
:102630007091270280912802909129020E94160F22
:1026400060912602669570E04BE050E084E091E0F6
:102650000E94CB22892BA9F010921E0281E0809368
:10266000130220E040912902609128028091270204
:102670000C944A0F8B3210F09465D4CF880F982BAE
:10268000D1CF0E94F412EACF089580912602869558
:10269000815009F48AE261E00C940A1380912602C9
:1026A00086958F5F8B3208F081E061E00C940A130D
:1026B0009091260290FF07C09695981720F09617E4
:1026C00010F40C944E1361E00C940A134F925F9235
:1026D0006F927F928F929F92AF92BF92CF92DF9232
:1026E000EF92FF920F931F93CF93DF9300D000D010
:1026F0000F92CDB7DEB77C01FC0183819481892BD9
:1027000031F08081918189238F3F09F0D8C50F90E6
:102710000F900F900F900F90DF91CF911F910F911D
:10272000FF90EF90DF90CF90BF90AF909F908F90F1
:102730007F906F905F904F9008950E943F0D182FEB
:10274000682F89819A810E94040569817A81812F8D
:102750000E94B30B8C01F7019281992309F4A4C55F
:10276000980122513F452031310508F076C58FEFA1
:1027700093E00E94D822025156E5852E912C8823A1
:1027800071F18091FF01877011F2F7018281882336
:1027900009F4BDCF82E00F900F900F900F900F9033
:1027A000DF91CF911F910F91FF90EF90DF90CF902D
:1027B000BF90AF909F908F907F906F905F904F9061
:1027C0000C94D3058114F4E09F06D9F2C4010E9451
:1027D000D822811101C001502FEF821A920A0111F3
:1027E000F1CF1C821B82662463944AE0542E84013C
:1027F0000F5F1F4FC4010E94D82289831A82882349
:1028000009F4BFCF9FEF980F933008F58A83698250
:1028100032E0830E911CC8010E94D8228B8388234A
:1028200009F4AFCF8E010F5F1F4FF80120812223E3
:10283000F1F2213009F043C091818281913049F455
:102840000E5F1F4F0E9464080F5F1F4FEECF4801BD
:10285000E9CF923029F40E5F1F4F0E94D507F4CFC5
:10286000933029F40E5F1F4F0E942206EDCF943063
:1028700019F00F5F1F4FE8CF0E5F1F4F30E020E0D1
:10288000B8016F5F7F4FF80141818053990B8A3007
:10289000910550F021503109B8F28FE99FE001977E
:1028A000F1F700C00000F6CF529EF001539EF00DEC
:1028B00011249C012E0F3F1F842F8B01E1CFE22FAB
:1028C000F0E0EF58FC4F7490822F869586958695A0
:1028D00090E0FC01EF59FC4FA4902770B12C022E20
:1028E00002C0B594A7940A94E2F7E1E0AE22BB24BB
:1028F000FC01EF5AFC4FC490D12C02C0D594C79470
:102900002A95E2F7F1E0CF22DD24A114B10419F0F9
:1029100081EE0E94D507C114D10419F086EE0E9401
:10292000D507872D0E946408CD2819F086EE0E94F5
:102930002206AB2809F488CF81EE96CF81E00E9471
:10294000EB050E9494051DCF81E00E94B005F9CFF0
:1029500082E0F5CF053F2CE5120709F461C008F4C9
:102960005BC027E245EE66EE063F8CE5180709F4EA
:1029700097C4992309F4B4C41092C0010230ECE565
:102980001E0708F430C10631FCE51F0738F0980136
:102990002A5F3C452930310508F025C10E947F0B94
:1029A00090930B0280930A0200312CE5120709F480
:1029B000E9C008F073C008308CE5180709F4D4C0EA
:1029C00008F045C00430ECE51E0709F4C1C078F5F5
:1029D00002302CE5120709F4B5C080910A0282602A
:1029E00003301C4509F4B1C060910A0210910B023A
:1029F00084E090E00E94EC22612F81E290E00E944E
:102A0000EC220E941810BDCE27E245EE65EE48C4C8
:102A100026E241EE60EE44C427E245EE64EE40C497
:102A200026E241EE62EE3CC428E241E0EFCF063000
:102A30008CE5180709F494C080910A028860073079
:102A40001C4508F482C080910A0280627EC0809199
:102A50000A028D7F0C30ECE51E0709F476C070F495
:102A600080910A028C600A302CE5120709F46DC0CF
:102A700008F47EC080910A028E7F67C00E308CE51C
:102A8000180709F47BC080910A028B7F0F301C4528
:102A900008F45BC080910A028F7E57C00B3FECE5C3
:102AA0001E0709F459C030F503312CE5120709F46B
:102AB00071C078F401318CE5180709F467C0023160
:102AC0001C4509F091CF0E94181080910A028F775F
:102AD0003CC00531ECE51E0709F464C008F478C079
:102AE00080910B0281600A3F1C4509F07DCF8093E5
:102AF0000B027ACF0F3F3CE5130709F44FC088F46F
:102B000080910B028D7F0D3F9CE5190781F3809129
:102B10000B028E7F0E3F1C4550F380910B028360A9
:102B2000E6CF0130FDE51F0709F45BC008F446C09D
:102B300060E002301D4509F057CF8EE090E00E9422
:102B4000EC2252CF80910A02816080930A024CCF1E
:102B500080910A028460F9CF80910B028260C7CF16
:102B600080910A028061F1CF80910A028064EDCFEA
:102B70000E94181080910A028068E7CF80910A02B3
:102B8000877FE3CF80910A028F7DDFCF80910A0299
:102B90008F7BDBCF80910A02837FD7CF80910B029E
:102BA0008C7FA5CF80910A0282FB992790F921E0C2
:102BB000922790FB82F990FB83F9C7CF80910B029B
:102BC000982F909591708E7F892B90FB81F98FCFF4
:102BD0000E94181090910A02892F97FB87F980585C
:102BE000B4CF61E0AACF809102020631ECE51E0766
:102BF00009F082C38A7A91E009F490E09093C101D0
:102C0000811106C089E20E94C3040E948904B9CDE3
:102C100085E3F9CF85E36DC38091260280FF1BC059
:102C20008E7F809326026091260270912702809108
:102C30002802909129020E94160F10921E02FFEFA7
:102C400020E732E0F15020403040E1F700C00000C2
:102C50000E94DB0896CD81608093260261E0869514
:102C60000E940A138ECD45E453E16EE473E10E94A5
:102C7000780687CD4EE453E165E473E1F8CF47EF82
:102C80005FE060E070E1F3CF40E050E167EF7FE0AC
:102C9000EECF4FED5FE06BEE7FE0E9CF4BEE5FE014
:102CA0006FED7FE0E4CF47EC5FE063ED7FE0DFCFE7
:102CB00043ED5FE067EC7FE0DACF49E35FE068E295
:102CC0007FE0D5CF48E25FE069E37FE0D0CF61E00D
:102CD00081E0C6CF65E082E00E94581352CD68E0E3
:102CE00086E0FACF6EE089E0F7CF64E18FE0F4CFC1
:102CF00067E185E1F1CF61E088E1B2CF62E289E18D
:102D0000EBCF61E083E2ACCF01158CE5180709F445
:102D100047C00E3D1C4509F450C0F70100811181E8
:102D2000992309F44DC0C8010E943F0DD82E682F89
:102D3000C8010E940405B8018D2D0E94C00B8C01B2
:102D4000882EF701A580A2943FE0A322D280D11063
:102D5000109201028091FF01877099F0DD2089F0C7
:102D6000812F807F803421F080E2800F883048F00E
:102D700082E00E94D3058091FF018770CC24C39428
:102D80008111C12CB12EB2942FE0B222FBE0FB15D1
:102D900008F450C0EB2DF0E0E356FC4D0C94622299
:102DA0000E941810FFEF24E33CE0F1502040304037
:102DB000E1F700C000000E9457040E94B30EE1CC6E
:102DC000C8010E94DC04D82EB6CF212F2F70A22E6E
:102DD000107F19F0A29490EFA922DD20C9F0AA205B
:102DE00069F080E2800F883010F081100BC0809174
:102DF0000202A82AA09202020E948904802F0E9447
:102E0000D50718C080910102A82AA0920102F4CF30
:102E1000802F0E942206AA2069F0A094005E08304C
:102E200010F081103BC080910202A822A092020201
:102E30000E948904EB2DE850FF0B349710F40E9498
:102E40001606CC2009F463CC8091FF0180FD5FCC95
:102E5000F70112828595859585950E94EB05C7013E
:102E60000E9466138091FF018595859585950F9049
:102E70000F900F900F900F90DF91CF911F910F91B6
:102E8000FF90EF90DF90CF90BF90AF909F908F908A
:102E90007F906F905F904F900C94B00580910102ED
:102EA000A822A0920102C4CF312F3F70932E107F31
:102EB000103219F0929480EF9822882071F081E00E
:102EC000881661F1DD20B9F1AA2071F1F701858141
:102ED00080FF94CF8F70858327C0DD2091F0909183
:102EE0000302892D892BA11003C00E944605A2CFA1
:102EF000E1E0AE12FACF981709F49CCF8093030259
:102F000099CFA11006C00E948304892D0E943B0521
:102F100091CFF1E0AF1609F48DCFF5CFDD2031F080
:102F200025E02A1508F486CF892DDFCF34E03A1545
:102F300008F480CFEACFAA2041F3F9E38F1286C1CB
:102F40002FEF37EE83E0215030408040E1F700C0A2
:102F500000007CC1812F86958695837061F0813059
:102F600009F068CFC8019370D11002C090E080E0F2
:102F70000E9450055FCFC8019370D11002C090E04D
:102F800080E00E94660556CF812F837009F066C0ED
:102F9000D11050CF802F829586958770880F880F2B
:102FA000602F6F70462E512C712C612C082E04C09E
:102FB000440C551C661C771C0A94D2F740E050E084
:102FC000BA0104FF0FC04FE050E060E070E004C0C1
:102FD000440F551F661F771F8A95D2F7409550956D
:102FE00060957095812F869586958370823019F152
:102FF000D8F400910402109105022091060230914C
:103000000702813069F04429552966297729CB01C7
:10301000BA0160237123822393230E940C060ACFF6
:10302000402A512A622A732ACB01BA0164297529E0
:1030300086299729F2CF44295529662977290091B5
:103040000402109105022091060230910702CB0183
:10305000BA016027712782279327DFCF8695DD206D
:1030600011F0812F8170882309F4E4CE802F82959E
:1030700086958770880F880F602F6F70462E512CB1
:10308000712C612C082E04C0440C551C661C771C46
:103090000A94D2F740E050E0BA0104FF0FC04FE0BD
:1030A00050E060E070E004C0440F551F661F771FBA
:1030B0008A95D2F74095509560957095812F8695A9
:1030C00086958370823019F1D8F4009143021091F3
:1030D00044022091450230914602813069F0442932
:1030E000552966297729CB01BA01602371238223F0
:1030F00093230E948A059ECE402A512A622A732A6F
:10310000CB01BA016429752986299729F2CF442970
:103110005529662977290091430210914402209194
:10312000450230914602CB01BA0160277127822700
:103130009327DFCF1F70DD2029F0812F0E94EB0540
:10314000802FD3CE802F0E943B05812F0E94B00597
:1031500071CE802F92EF891609F450C0981578F03F
:10316000E0EF8E1619F1F1EF8F1609F43FC0DD2064
:1031700009F467C0A11042CE812F8F713CC023EFAC
:10318000821609F440C034EF8312F1CFDD2009F438
:103190004DC01F71812F0E94EB05E8E01E9FC0010A
:1031A000112483608093FF01812F25C0DD20C9F0A9
:1031B00084E08A1508F43ECE1F7161E070E080E083
:1031C00090E004C0660F771F881F991F1A95D2F7E9
:1031D0000091430210914402209145023091460231
:1031E000A4CF95E09A1508F425CEE6CF812F8F71F4
:1031F000DD2009F4ABCF0E94EB051CCE812F8F712F
:10320000DD20C9F3A3CF60E070E0CB01DD2009F43D
:1032100070CF1F7161E070E080E090E004C0660F45
:10322000771F881F991F1A95D2F763CF81E00E94FC
:10323000D305F1E0FA1508F0FDCD82E00E94D30538
:10324000F9CDAA2039F0893309F47ACE802F0E9473
:103250002206F0CD812F8F7179CF0031FFE51F0756
:1032600009F46CCB01312FE5120709F471CB033F50
:103270002CE5120709F4CCCB08F06CCB083D8CE5AB
:10328000180709F4C1CB093DECE51E0709F4CCCBC6
:10329000073DFCE51F0709F06CCB26E241EE61EE2D
:1032A000C7010E9477086DCA00313FE5130709F492
:1032B0004BCB01318FE51807D1F682E046CB85E094
:1032C000DE01119601900D928A95E1F7F7012281B6
:1032D00089819A81211131CA0E94DC04182F35CAD4
:1032E00006311C4509F019CD8091C101811192CCA4
:1032F00089E20E94B60489CC8272F801E25CFC4546
:10330000E431F10508F000CDE755FC4D0C94622244
:103310001F93CF93DF938091C701807FA9F48091A1
:10332000C401882389F08091F901D091C80160918E
:10333000C2017091C301A091C501B091C601C62F11
:10334000C72316E0D81304C0DF91CF911F910895D1
:1033500090E0109711F0CF3F19F401968770F2CFEB
:10336000189F9001199F300D1124F901E753FE4F6A
:1033700041814713F2CF40814613EFCF4281411183
:10338000ECCF438154814A1B5B0B483C510528F725
:103390008091C7018F7080618093C701F901E2536A
:1033A000FE4F80818F708061808382EC91E00E946B
:1033B0006613DF91CF911F910C943105AF92BF92AC
:1033C000CF92DF92EF92FF920F931F93CF93DF93F1
:1033D000CDB7DEB761970FB6F894DEBF0FBECDBF95
:1033E0008C0185E0F801DE011D9601900D928A9511
:1033F000E1F7F80180819181E28022ECA22E21E0A8
:10340000B22E6091C5017091C6016115710509F474
:103410003EC13091C2014091C301232F24232F3F8D
:1034200009F435C1C380D480F090C401F601E61BD5
:10343000F70BFF2009F4FBC02091C701522F507FEA
:10344000E83CF10508F0BBC0511178C0FE2C4913CF
:1034500021C038131FC0E1101DC02F7020612093C0
:10346000C701C5010E9466138091C701F8018583D9
:103470008F2D61960FB6F894DEBF0FBECDBFDF91E2
:10348000CF911F910F91FF90EF90DF90CF90BF9061
:10349000AF900895CD2829F0282F29232F3F09F038
:1034A00014C120E0F22FF170DF2E20FF3DC02091EB
:1034B000F9014091C80156E0241315C08D879E87FD
:1034C0008D859E850E94810D292F22952F70223097
:1034D000F8F0243020F59F70F9F0F8019581907F85
:1034E000D9F4D12C1FC030E0529FF001539FF00D52
:1034F0001124E753FE4F6181961306C06081861345
:1035000003C06281E61210C02F5F3F4F2770D4CFF7
:103510009F7011F0882329F3805E883010F3C80172
:103520000E946613FD2CA4CFEE2009F4A1CF809158
:10353000C70181608093C701F12C9ACF491312C053
:10354000381310C0E1100EC0F8012583C8010E9495
:10355000661386E0F801A2ECB1E001900D928A9525
:10356000E1F786CF8D879E878D859E850E948B0D86
:10357000882309F1EE20F9F08091C701803270F0C4
:103580002091C2013091C30138872F831986DB86D1
:10359000CA868C87CE0107960E94661386E0F801E2
:1035A000A2ECB1E001900D928A95E1F70E94881992
:1035B000FF24F3945DCFC8010E946613F9CF511127
:1035C0000AC082EC91E00E94661386E0F501119238
:1035D0008A95E9F7B1CF49130FC038130DC0E11038
:1035E0000BC0F8012583C8010E94661386E0F5012F
:1035F00011928A95E9F73CCF8D879E878D859E85B0
:103600000E948B0D8823B9F2EE20A9F28091C701A8
:10361000803220F22091C2013091C3013A83298384
:103620001B82DD82CC828E83CE010196B5CFE83C31
:10363000F105E0F6FE2CEE2009F4BDCF491316C0CB
:10364000381314C08091C70180FD83CF982F907FDD
:1036500009F47FCFF8018583903F09F477CF982F45
:10366000907F905F8F70892B858370CF8D879E8729
:103670008D859E850E948B0D811190CF8091C70111
:1036800081608093C701C8010E946613F1CEEE20CD
:1036900009F491CF8D879E878D859E850E948B0D25
:1036A000F82E882309F487CF86E0F801A2ECB1E078
:1036B00001900D928A95E1F78091C2019091C3012A
:1036C0000E94810D0E948819D3CE21E02E25EACEDA
:1036D0001F93CF93DF93CDB7DEB767970FB6F894FC
:1036E000DEBF0FBECDBF4B8B5C8B6D8B7E8B8F8B0C
:1036F0001A8A198A85E0FE017396DE011D960190F3
:103700000D928A95E1F786E0FE013D96DE0117965F
:1037100001900D928A95E1F7CE0107960E94DE197D
:10372000811112C086E0FE013796DE0111960190EC
:103730000D928A95E1F78A859B85892B29F08F81E7
:10374000988589238F3FB1F516E08091F90190911A
:10375000C80189131DC067960FB6F894DEBF0FBE6F
:10376000CDBFDF91CF911F91089596E0929FD00138
:10377000939FB00D1124A753BE4FFE0131960190C7
:103780000D929A95E1F78093C8010E943105DCCF34
:10379000819FC001112487539E4F0E94DE19882308
:1037A000D1F28091F90190E001968770992780937A
:1037B000F901CBCF2091C80130E0C9010196877093
:1037C00099274091F9014817190679F60E941810B7
:1037D0001092C8011092F90186E0E2ECF1E0DF01FD
:1037E0001D928A95E9F7B0CF1F920F920FB60F92F4
:1037F00011242F933F934F935F936F937F938F93F6
:103800009F93AF93BF93CF93DF93EF93FF93D091A9
:10381000E900DF708091EC00C82FC17080FDC0E826
:103820001092E9008091F000877F8093F0007894F7
:103830000E9423101092E9008091F000886080932C
:10384000F000CD2BCF70C093E900FF91EF91DF9195
:10385000CF91BF91AF919F918F917F916F915F9128
:103860004F913F912F910F900FBE0F901F90189581
:103870001F920F920FB60F9211242F933F934F93E5
:103880005F936F937F938F939F93AF93BF93EF93C8
:10389000FF938091E10082FF09C08091E20082FFE6
:1038A00005C08091E1008B7F8093E1008091DA0078
:1038B00080FF24C08091D80080FF20C08091DA0072
:1038C0008E7F8093DA008091D90080FFB0C080E1C4
:1038D00089BD82E189BD09B400FEFDCF81E08093FE
:1038E000420280912502811109C00E94A0020E941B
:1038F00093038091E20084608093E2008091E10074
:1039000080FF17C08091E20080FF13C08091E20029
:103910008E7F8093E2008091E20080618093E200DC
:103920008091D80080628093D80019BC85E0809394
:1039300042028091E10084FF3EC08091E20084FF5A
:103940003AC080E189BD82E189BD89B5982F917027
:1039500080FFFBCF8091D8008F7D8093D80080912D
:10396000E1008F7E8093E1008091E2008F7E809362
:10397000E2008091E20081608093E2008091390250
:10398000882309F45AC084E0809342020E941810F0
:103990000E94160610922C0280912B02882349F077
:1039A0008091260281608093260260E086950E94C5
:1039B0000A130E94F4128091E10083FF27C08091D6
:1039C000E20083FF23C08091E100877F8093E100C4
:1039D00082E080934202109239028091E1008E7F52
:1039E0008093E1008091E2008E7F8093E2008091DD
:1039F000E20080618093E20042E060E080E00E94AB
:103A000061038091F00088608093F000FF91EF9156
:103A1000BF91AF919F918F917F916F915F914F91E6
:103A20003F912F910F900FBE0F901F90189519BCCA
:103A3000109242021092250261CF8091E30087FD2F
:103A400093E090934202A2CFCDB7DEB7AA970FB60C
:103A5000F894DEBF0FBECDBF84B7877F84BF0FB69B
:103A6000F894A8958091600088618093600010921E
:103A700060000FBE80E890E00FB6F894809361007C
:103A8000909361000FBE85B7806885BF85B7806859
:103A900085BF0E94A0020E9493038091E20084608F
:103AA0008093E2007894809142028823A1F01091E3
:103AB000E9001F709091EC00892F817090FD80E8E3
:103AC000182B1092E9008091E80083FD0E942310DA
:103AD0001F701093E90082E084BD93E095BD9AEFDA
:103AE00097BD80936E0087988F9A2198299AAAE7AC
:103AF000B1E02DE731E041E050E08D91E82FE29513
:103B0000EF70F0E011A18F70BA0101C0660F8A95C5
:103B1000EAF7962F9095912391A382A1862B82A3F9
:103B20002A173B0751F71092080210921F021092B9
:103B30000902109220020E94E00A8FE39CE901979B
:103B4000F1F700C000000E94E00A80911F0280FF90
:103B50000BC080E00E94120E6FEF7FEF90E080E0DC
:103B60000E940A230E94570490E080E00E94E6220F
:103B70008C3E9E4F11F00E94B30E82E290E00E94B4
:103B8000D822803209F009C483E290E00E94D82252
:103B9000873009F002C484E290E00E94D822823289
:103BA00009F0FBC390E080E00E94E6228C3E9E4F2D
:103BB00011F00E94B30E82E090E00E94D822809320
:103BC0001A020E947F0B90930B0280930A0283E0FB
:103BD00090E00E94D822682F70E090E080E00E9480
:103BE0000C0680910C02811136C090E080E00E94AA
:103BF000E6228C3E9E4F21F00E94B30E0E940910D7
:103C000088E090E00E94E0226093260270932702F1
:103C100080932802909329026E7F71F40E9409100C
:103C200088E090E00E94E0226093260270932702D1
:103C300080932802909329020E947D0610921E0212
:103C40008091260280FF04C060E086950E940A13DE
:103C500081E080930C0223982B9A22982A9A83B1B0
:103C600083FB882780F91A9909C190E0892B8093FA
:103C7000180260E086E00E940A1381E191E09093CF
:103C80000E0280930D0244EFC42E43E0D42E8091A7
:103C90004202853009F4F4C00E94E00A90911F02AC
:103CA00020911B02921759F080E011E02927322F52
:103CB000312309F04FC18F5F110F8330C1F790910D
:103CC000200220911C02291709F44DC180E011E067
:103CD0002927322F312309F441C121E0AA24A394DA
:103CE000B12C89A32AA3912381E009F480E08BA35E
:103CF0000E9477048160782F9DA38CA349A15AA1CB
:103D00006BA18DA10E94681BF501E55EFD4F8081CE
:103D10001827108380911E02882309F441C08091E6
:103D20001D02E0912602E695E81BE0931202823024
:103D300009F02AC1F0E0EE5FFB4FE4910E2F10E096
:103D40008CEBA82E8AE0B82E80911302882389F08C
:103D5000109213020E947704980120953095820FEB
:103D6000931F9093110280931002109215021092EB
:103D7000140280911002909111020E946804801731
:103D8000910770F0E0911002F09111020E0F1F1FC9
:103D9000109311020093100280E192E0F501099561
:103DA000E0911802EE0FEE0FE093180283B183FB4F
:103DB000EE24E0F81A9953C180E08E29E82BE093B5
:103DC0001802EF70F0E0E358FE4F808190911702E7
:103DD000890F80931702843044F0809116028F5F20
:103DE000809316028AEA0E946408809117028D3F30
:103DF00044F48091160281508093160289EA0E9451
:103E0000640880911702837887FF03C081508C6F0C
:103E10008F5F809317020E941606909119028917EE
:103E200021F00E941606809319028091420284308C
:103E300009F02DCF83E08093E9008091E80082FFB4
:103E400026CF8091E80090E085FF06C00E94BF0267
:103E5000882309F407C191E08091E8008B77809373
:103E6000E800992309F413CFE981E150E33108F028
:103E70004CC1F0E0E354FC4D0C94622292E0F6CE8B
:103E800080914202843009F441C010920F0288E10F
:103E900090E020E40FB6F894A895809360000FBEE0
:103EA0002093600010921E0280912C02811117C095
:103EB00081E080932C0280912602982F917090933C
:103EC0002B028E7F809326028FEF90E7E2E08150F5
:103ED0009040E040E1F700C000000E94DB0883B79B
:103EE000817F846083BF83B7816083BF7894889526
:103EF00083B78E7F83BF0FB6F894A895809160003A
:103F0000886180936000109260000FBE809138023B
:103F1000882309F4BCCE0E94E00A8091200290918F
:103F20001F02892B09F4B3CE80E189BD82E189BDEE
:103F300009B400FEFDCF8091D8008F7D8093D8001A
:103F40008091E00082608093E0008091E00081FD3C
:103F5000FCCF9DCE20E0B12CA12CC3CE8F5F110FE2
:103F6000833009F0B6CE8FEF8EA38FA318A60E94E0
:103F700077048160782F9AA789A74EA15FA168A5D1
:103F80008AA50E94681BC6CE863059F4F0E0E15045
:103F9000FC4FE4910E2F10E0B0EDAB2EBAE0BB2E3B
:103FA000D3CE893061F4E695F0E0E450FC4FE49123
:103FB0000E2F10E0A2E1AA2EA9E0BA2EC5CE8F30B6
:103FC00061F4E695F0E0E750FC4FE4910E2F10E02D
:103FD000F9E3AF2EF9E0BF2EB7CE853159F4F0E00A
:103FE000EA50FC4FE4910E2F10E0ECE9AE2EE9E030
:103FF000BE2EAACE08EE13E056EFA52E59E0B52E40
:10400000883109F4A1CE833241F4F601059114916F
:1040100073E6A72E7AE0B72E97CE04EF11E043E2C5
:10402000A42E4AE0B42E843209F48ECE00ED17E0BF
:1040300032E5A32E34E0B32E853209F085CE8E2FE3
:1040400063E00E942E22E92FF0E0EF50FC4FE49154
:104050000E2F10E06AE2A62E6EE0B62E75CE82E03C
:1040600090E0ABCE00E210E0CE0101965C018091C1
:10407000E80085FD0AC08091E8008B778093E80016
:104080000E94BF02882399F3E6CE8091F100F501EA
:1040900081935F010150110951F7DDCE1A8289E049
:1040A0008B8319C08A81823009F484C18330C1F0C6
:1040B000813059F52FB7F894609121027091220256
:1040C00080912302909124022FBF0E9468226B836B
:1040D0007C838D839E83CE0101960E941A03D7CDE7
:1040E00080911F028B83809120028C83F4CF8A8180
:1040F000823059F46B817C818D819E810E9468227F
:1041000085E290E00E94EC22E6CF8FEF8983E3CF37
:104110004C816B818A810E948D0B98278927982773
:104120009E838D83D8CFAD80BE80BA24AB24BA24C1
:104130008A810B81F6E00F9F800111242CE0829F81
:10414000000D111D11248C8190E0880F991F080F1C
:10415000191F6B2DC80186960E94EC226A2DC8019A
:104160008796D0CF0E94AF0DB6CF8A818138C1F03B
:1041700060F4803809F0AFCF20E04B8160912802D5
:10418000809127020E944A0FA6CF823859F18338C6
:1041900009F0A1CF20E0409129026C818B81F2CF00
:1041A00060E08B810E940A139B818091260291110D
:1041B00011C08E7F8093260210921E028FEF90E72F
:1041C000E2E081509040E040E1F700C000000E9432
:1041D000DB0881CF81608093260260E086950E9493
:1041E0000A1379CF8B8180932A0275CF8A81813817
:1041F00091F030F4803809F06ECF8091290250CFD1
:10420000823889F0833809F066CF809127028B834A
:10421000809128026ACF8091260280FF02C0869595
:104220003FCF80E03DCF80912A023ACF60912602B5
:104230007091270280912802909129020E94160F06
:104240004ACF80E18A8347CF83E08A838AEA28CFF6
:10425000AA80BB80BA24AB24BA248E010F5F1F4F03
:104260008C80800E912E911CC5018A5A9F4F081593
:10427000190509F430CFFAEAAF16F3E0BF0650F49F
:104280000E94D822F8018483FFEFAF1ABF0A0F5FA4
:104290001F4FEACFF8011482F7CF0A811B81102744
:1042A00001271027CE0101964C01AC80A00EB12E43
:1042B000B11CC8018A5A9F4F0A151B0509F40BCF80
:1042C0000A3AE3E01E0720F4F40164810E94EC2224
:1042D000FFEF8F1A9F0A0F5F1F4FEBCF0E94020E56
:1042E000FACE84E0AFCFAA80BB80BA24AB24BA2434
:1042F0008E010F5F1F4F8C80800E912E911CC50187
:1043000086960815190509F4E6CE20E3A216B10435
:1043100050F40E94D822F8018483FFEFAF1ABF0A3D
:104320000F5F1F4FECCFF8011482F7CF0A811B817A
:10433000102701271027CE0101964C01AC80A00E5A
:10434000B12EB11CC8018696A016B10609F4C3CEE1
:104350000033110520F4F40164810E94EC22FFEF88
:104360008F1A9F0A0F5F1F4FEDCF80E00E94120E41
:104370006FEF7FEF90E080E00E940A23ACCECE0189
:1043800001960E941A032FEF81EE94E021508040A5
:104390009040E1F700C00000E5CB60E085E290E0EE
:1043A0000E94EC220E94AF0D0E94020E81E00E944A
:1043B000120EF8CB85E290E00E94D8221B821C826C
:1043C0001D828E8388CE78941F921FB61F9211246F
:1043D0008F939F93AF93BF9380912102909122027C
:1043E000A0912302B09124020196A11DB11D8093DA
:1043F000210290932202A0932302B0932402BF9142
:10440000AF919F918F911F901FBE1F9018951F9283
:104410001FB61F9211248F939F93AF93BF938091E8
:104420000F02811113C08091210290912202A0916C
:104430002302B09124024196A11DB11D8093210257
:1044400090932202A0932302B0932402BF91AF91D4
:104450009F918F911F901FBE1F901895991B79E017
:1044600004C0991F961708F0961B881F7A95C9F704
:1044700080950895AA1BBB1B51E107C0AA1FBB1F53
:10448000A617B70710F0A61BB70B881F991F5A95E0
:10449000A9F780959095BC01CD01089597FB072E53
:1044A00016F4009407D077FD09D00E943A2207FC49
:1044B00005D03EF4909581959F4F08957095619534
:1044C0007F4F0895EE0FFF1F0590F491E02D0994A2
:1044D00069279627692778278727782708958F9255
:1044E0009F92AF92BF92CF92DF92EF92FF92CF93C3
:1044F000DF93EC01688179818A819B816115710567
:104500008105910521F464E279ED8BE597E02DE1D9
:1045100033EF41E050E00E94202349015A019B0102
:10452000AC01A7EAB1E40E943F236B017C01ACEE31
:10453000B4EFA50194010E944D23DC01CB018C0D49
:104540009D1DAE1DBF1DB7FF03C00197A109B04857
:1045500088839983AA83BB839F77DF91CF91FF9054
:10456000EF90DF90CF90BF90AF909F908F90089585
:104570000E946F22089580E091E00E946F220895CA
:10458000B0E0A0E08093000190930101A0930201AC
:10459000B09303010895FC014150504030F0019068
:1045A0000616D1F73197CF010895882799270895E6
:1045B000F999FECF92BD81BDF89A992780B50895EB
:1045C000A6E1B0E044E050E00C941223A8E1B0E092
:1045D00042E050E00C941223262FF999FECF92BDB1
:1045E00081BDF89A019700B4021639F01FBA20BDB8
:1045F0000FB6F894FA9AF99A0FBE08950396272FEA
:104600000E94ED220E94EC22252F0E94ED22242FF1
:104610000C94ED220196272F0E94ED220C94EC229F
:10462000DC01CB01FC01F999FECF06C0F2BDE1BD72
:10463000F89A319600B40D9241505040B8F7089561
:10464000052E97FB1EF400940E94372357FD07D0D8
:104650000E94522307FC03D04EF40C94372350954C
:104660004095309521953F4F4F4F5F4F089590955E
:104670008095709561957F4F8F4F9F4F08950E9451
:104680007423A59F900DB49F900DA49F800D911D44
:1046900011240895B7FF0C943F230E943F23821BEF
:1046A000930B0895A1E21A2EAA1BBB1BFD010DC09E
:1046B000AA1FBB1FEE1FFF1FA217B307E407F507D2
:1046C00020F0A21BB30BE40BF50B661F771F881FAE
:1046D000991F1A9469F760957095809590959B0144
:1046E000AC01BD01CF010895A29FB001B39FC001ED
:1046F000A39F700D811D1124911DB29F700D811D0E
:104700001124911D0895F894FFCF9A0D9A0DA30DD1
:10471000A30DA50DA30DA30DA30D9A0D9A0DAA0D22
:10472000A30DA30DAA0D08113011DC123011DC12FB
:1047300063118411DC128D129A12E516E5165417D6
:104740005417AA171A171A171A17C4179A18A9185C
:10475000A9180C1633163A163F16441649164E166B
:10476000531658165D16621667166A166F1672167D
:10477000751678167B167E1681164E2052207720ED
:1047800088209320B220B520F6201621B521BF2124
:104790002121242128214D216E217121732196216F
:1047A0000100000001191A1B1C1D1E1F20212201DF
:1047B000025404A4075304A0079707010001020252
:1047C00002020606060909090909090F0F0F0F0F52
:1047D0000F15151518191919191919191919192356
:1047E00024252525252525818283E200E900EA008C
:1047F000B500B600B700CD008301CC008A0192015C
:1048000094012102230224022502260227022A0201
:10481000B300B4006F007000F731F4F5F600FF014B
:1048200000010000FFFF0000010001FF00402232F4
:0C4830000001DE00AC001804310451044B
:00000001FF
